:100000000C9462000C948A000C948A000C948A0070
:100010000C948A000C948A000C948A000C948A0038
:100020000C948A000C948A000C948A000C94480367
:100030000C948A000C948A000C948A000C948A0018
:100040000C94FE020C948A000C948A000C948A0092
:100050000C948A000C948A000C948A000C948A00F8
:100060000C948A000C948A000000000024002700F1
:100070002A0000000000250028002B0000000000DE
:1000800023002600290004040404040404040202DA
:100090000202020203030303030301020408102007
:1000A0004080010204081020010204081020000012
:1000B0000008000201000003040700000000000027
:1000C0000000850511241FBECFEFD8E0DEBFCDBFF5
:1000D00011E0A0E0B1E0E8EEFDE002C005900D9275
:1000E000A431B107D9F721E0A4E1B1E001C01D922C
:1000F000A336B207E1F710E0C2E6D0E004C02197D2
:10010000FE010E94EC06C136D107C9F70E94040423
:100110000C94F2060C9400008F929F92AF92BF92C3
:10012000FF920F931F93CF93DF93F09048012BE042
:100130002F1508F44CC020914A0108E512E0021B7B
:10014000110927FD1395000F111F000F111F20919A
:100150004901C8E8D0E0C21BD10927FDD395CC0FD7
:10016000DD1FCC0FDD1F4E010D2E000CAA08BB08B1
:100170009801012E000C440B550B281939094A0926
:100180005B09DC010E94A70624EB30E040E050E070
:100190000E947D06820E931EA41EB51E8C169D061F
:1001A0002CF0E801801691060CF4E4012297CC0FA4
:1001B000DD1F2FB7F8948F2D90E0FC01EE0FFF1F8D
:1001C000E80FF91FEC5DFE4FD283C1832FBFDF9193
:1001D000CF911F910F91FF90BF90AF909F908F9004
:1001E0000895AF92BF92CF92DF92EF92FF920F935A
:1001F0001F93CF93DF936C017B018B01040F151FBD
:10020000EB015E01AE18BF08C017D10759F0699124
:10021000D601ED91FC910190F081E02DC601099588
:10022000892B79F7C501DF91CF911F910F91FF9035
:10023000EF90DF90CF90BF90AF900895833081F022
:1002400028F4813099F08230A9F008958730A9F020
:100250008830C9F08430B1F4809180008F7D03C074
:10026000809180008F7780938000089584B58F7788
:1002700084BD089584B58F7DFBCF8091B0008F77CA
:100280008093B00008958091B0008F7DF9CFCF9317
:10029000DF93282F30E0F901E255FF4F8491F901F7
:1002A000E656FF4FD491F901EA57FF4FC491CC2392
:1002B000A1F081110E941E01EC2FF0E0EE0FFF1F54
:1002C000E458FF4FA591B491EC91ED2381E090E0CB
:1002D00009F480E0DF91CF91089580E090E0FACFBB
:1002E0001F93CF93DF93282F30E0F901E255FF4FA2
:1002F0008491F901E656FF4FD491F901EA57FF4F77
:10030000C491CC23A9F0162F81110E941E01EC2F5D
:10031000F0E0EE0FFF1FEE58FF4FA591B4918FB79D
:10032000F894EC91111108C0D095DE23DC938FBFB7
:10033000DF91CF911F910895DE2BF8CFCF93DF93FC
:1003400090E0FC01E656FF4F24918A579F4FFC0135
:1003500084918823D1F090E0880F991FFC01E8591F
:10036000FF4FA591B491FC01EE58FF4FC591D49178
:1003700061110EC09FB7F8948C91E22FE0958E2307
:100380008C932881E223E8839FBFDF91CF9108956A
:100390008FB7F894EC91E22BEC938FBFF6CF3FB779
:1003A000F89480911B0190911C01A0911D01B091C6
:1003B0001E0126B5A89B05C02F3F19F00196A11D6F
:1003C000B11D3FBFBA2FA92F982F8827BC01CD019F
:1003D000620F711D811D911D42E0660F771F881FFE
:1003E000991F4A95D1F70895089590E080E0089507
:1003F0008F929F92AF92BF920F931F93CF93DF93F1
:10040000CDB7DEB7A1970FB6F894DEBF0FBECDBF54
:1004100019A2423008F44AE08E010F5D1F4F842E6E
:10042000912CB12CA12CA50194010E94AF06E62FBE
:10043000B901CA01EA3044F5E05DD801EE938D01BF
:10044000232B242B252B79F790E080E0109769F07F
:10045000FD0101900020E9F73197AF014A1B5B0BCA
:10046000BD018BE491E00E94F100A1960FB6F894D3
:10047000DEBF0FBECDBFDF91CF911F910F91BF9017
:10048000AF909F908F900895E95CD7CFCF93DF9383
:10049000EC0160E08E810E94700161E08E810E941B
:1004A000700160E08E810E9470018BE891E00197FD
:1004B000F1F7DF91CF910895CF92DF92EF92FF9203
:1004C0000F931F93CF93DF936C017C0187E0E80EBD
:1004D000F11CD0E0C0E0062F10E0B8010C2E02C0E5
:1004E000759567950A94E2F76170F70181917F0134
:1004F0000E9470012196C430D10579F7C601DF91C1
:10050000CF911F910F91FF90EF90DF90CF900C94BF
:100510004602CF92DF92EF92FF920F931F93CF93F9
:10052000DF93EC01F62E642F8C810E9470018D8187
:100530008F3F19F060E00E9470010F2D10E08F8551
:1005400084FF25C06E0187E0C80ED11CF12CE12C80
:10055000B8010E2C02C0759567950A94E2F7617098
:10056000F60181916F010E947001FFEFEF1AFF0AFF
:1005700088E0E816F10461F7CE01DF91CF911F9179
:100580000F91FF90EF90DF90CF900C944602B8014E
:1005900084E0759567958A95E1F7CE010E945C022B
:1005A0006F2DCE01DF91CF911F910F91FF90EF90B2
:1005B000DF90CF900C945C0241E00E94890281E0C0
:1005C00090E00895CF92DF92EF92FF926B017C0151
:1005D00041E06DE28BE491E00E9489026627772773
:1005E000CB016C197D098E099F094AE00E94F80130
:1005F0000196FF90EF90DF90CF9008951F920F9299
:100600000FB60F9211242F933F938F939F93AF9325
:10061000BF938091170190911801A0911901B09199
:100620001A013091160123E0230F2D3758F501965A
:10063000A11DB11D209316018093170190931801FD
:10064000A0931901B0931A0180911B0190911C0194
:10065000A0911D01B0911E010196A11DB11D8093B5
:100660001B0190931C01A0931D01B0931E01BF912B
:10067000AF919F918F913F912F910F900FBE0F904F
:100680001F90189526E8230F0296A11DB11DD2CF09
:100690001F920F920FB60F9211242F933F934F93F7
:1006A0005F936F937F938F939F93AF93BF93CF93FA
:1006B000DF93EF93FF9380911501C0911401D0E077
:1006C00087FF24C01092850010928400809115014C
:1006D0008F5F8093150180911501082E000C990BF6
:1006E0008C179D0724F4809115018C30C4F1809102
:1006F000840090918500049680349C4908F47AC067
:100700008091840090918500049676C080911501B7
:10071000082E000C990B8C179D07C4F6E09115016B
:100720008E2FEE0F990BFC01EE0FFF1FE80FF91F44
:10073000EC5DFE4F808186FFC9CFE09115018E2FC1
:10074000EE0F990BFC01EE0FFF1FE80FF91FEC5D98
:10075000FE4F808160E08F730E947001B7CF2091BF
:10076000840030918500E09115018E2FEE0F990BDA
:10077000FC01EE0FFF1FE80FF91FEC5DFE4F8181BA
:100780009281820F931F9093890080938800E0915B
:1007900015018E2FEE0F990BFC01EE0FFF1FE80FD6
:1007A000F91FEC5DFE4F808186FF11C0E0911501BD
:1007B0008E2FEE0F990BFC01EE0FFF1FE80FF91FB4
:1007C000EC5DFE4F808161E08F730E947001FF91AC
:1007D000EF91DF91CF91BF91AF919F918F917F91D9
:1007E0006F915F914F913F912F910F900FBE0F909E
:1007F0001F90189580E49CE990938900809388006D
:100800008FEF80931501E3CF789484B5826084BD27
:1008100084B5816084BD85B5826085BD85B5816004
:1008200085BD80916E00816080936E001092810082
:10083000809181008260809381008091810081603D
:1008400080938100809180008160809380008091FE
:10085000B10084608093B1008091B000816080938A
:10086000B00080917A00846080937A0080917A0051
:10087000826080937A0080917A00816080937A0010
:1008800080917A00806880937A001092C10060E0C5
:1008900088E00E949E01809148018C3008F053C08E
:1008A00061E089E00E949E0180914801282F30E09C
:1008B000F901EE0FFF1FE20FF31FEC5DFE4F908179
:1008C000907C996090839EE89093490194E6909380
:1008D0004A012CE0622F0E94E006829FB0011124A1
:1008E00030E020E0AB01420F531FFA01EE0FFF1F73
:1008F000E40FF51FEC5DFE4F908196FD16C02F5F53
:100900003F4F2C30310571F781110FC010928000DC
:1009100082E0809381001092850010928400B19A49
:1009200080916F00826080936F00E09148018E2F6C
:1009300090E0FC01EE0FFF1FE80FF91FEC5DFE4F8A
:10094000808180648083CBE3DFE100E010E0E09011
:100950000301F090040140E061E08BE491E00E942B
:100960008902CE010197F1F7B701FF0C880B990BB3
:1009700097FF9FC00E94E20241E050E061E171E018
:100980008BE491E00E94F1006091010170910201FD
:10099000072E000C880B990B97FF8FC00E94E20274
:1009A0000E94CF014B015C0188EEC82E83E0D82E57
:1009B000E12CF12C0E94CF01681979098A099B0961
:1009C000683E734081059105A8F321E0C21AD10861
:1009D000E108F10888EE880E83E0981EA11CB11C86
:1009E000C114D104E104F10429F782E00E94470117
:1009F0006C0190932301809322018DE00E944701B6
:100A00007C01909321018093200188E00E9447019E
:100A1000CA94CD2851F420910101309102012F5F39
:100A20003F4F3093020120930101EA94EF2851F4E3
:100A300020910101309102012150310930930201CE
:100A400020930101019771F4F0900001FF2031F033
:100A500010921F018AE590E00E948C0081E0F82648
:100A6000F092000180910001882391F120911F01F3
:100A70006091010170910201809103019091040144
:100A8000AB01481B590B43305105DCF0211107C065
:100A900084EB90E00E948C0081E080931F018091A4
:100AA0000301909104010196909304018093030146
:100AB0000FC04AE00E94F8015FCF4AE00E94F801AF
:100AC0006FCF4150510942305105B0F42111EBCFA5
:100AD00080911F01811109C080910301909104014F
:100AE000019790930401809303010115110509F406
:100AF0002ECF0E9400002BCF222351F38AE590E0F5
:100B00000E948C0010921F01E3CFCF93DF9380915E
:100B100014018C3008F06DC091E0980F909314018F
:100B20008093480190E0FC01EE0FFF1FE80FF91FD2
:100B3000EC5DFE4F88EB9BE09283818310924E0127
:100B400010924D0189E091E090934C0180934B010C
:100B50008CE080934F018FEF809350018BE0809366
:100B6000510187E08093520186E08093530185E034
:100B70008093540184E080935501109256011092A5
:100B80005701109258011092590110925A0181E0B8
:100B900080935E0110925F0180E48093600180E1A8
:100BA0008093610180E58093620161E08CE00E94A6
:100BB0009E01809150018F3F19F061E00E949E01DB
:100BC00061E0809151010E949E01CBE4D1E09E0141
:100BD0002B54314080915A0184FD0FC084E090E095
:100BE00021962817390764F461E08E810E949E01E6
:100BF000EECF8FEF80934801A1CF88E090E0F0CF57
:100C00008BE39DE00197F1F760E080914F010E9436
:100C1000700160E0809151010E947001809150014B
:100C20008F3F19F060E00E94700160915A0164FDED
:100C300045C063E08BE491E00E945C02CBE4D6E423
:100C4000CE010197F1F763E08BE491E00E945C0232
:100C50002197F1F763E08BE491E00E945C0283E569
:100C600092E00197F1F762E08BE491E00E945C0270
:100C700060915A01606240E08BE491E00E94890239
:100C800084E080935B0140E06CE08BE491E00E94A3
:100C9000890240E061E08BE491E00E9489028BE3ED
:100CA0009FE10197F1F782E080935C0140E066E00C
:100CB0008BE491E0DF91CF910C948902606240E077
:100CC0008BE491E00E9489028BE496E40197F1F7AE
:100CD00060915A01606240E08BE491E00E948902D9
:100CE00083E592E00197F1F760915A01606240E07C
:100CF0008BE491E00E948902BBCF052E97FB1EF486
:100D000000940E94940657FD07D00E94AF0607FC8E
:100D100003D04EF40C94940650954095309521954F
:100D20003F4F4F4F5F4F0895909580957095619517
:100D30007F4F8F4F9F4F08950E94D106A59F900D22
:100D4000B49F900DA49F800D911D11240895B7FFAD
:100D50000C949C060E949C06821B930B0895A1E2B2
:100D60001A2EAA1BBB1BFD010DC0AA1FBB1FEE1F25
:100D7000FF1FA217B307E407F50720F0A21BB30B70
:100D8000E40BF50B661F771F881F991F1A9469F7EC
:100D900060957095809590959B01AC01BD01CF0148
:100DA0000895A29FB001B39FC001A39F700D811D44
:100DB0001124911DB29F700D811D1124911D089564
:100DC000991B79E004C0991F961708F0961B881F9D
:100DD0007A95C9F780950895EE0FFF1F0590F4915D
:080DE000E02D0994F894FFCF07
:100DE800011400180000000000DC02F100F501F415
:040DF80001200000D6
:00000001FF
